{
  "contractName": "CrowdFunding",
  "abi": [
    {
      "inputs": [
        {
          "internalType": "address payable",
          "name": "_fundingBankAddress",
          "type": "address"
        }
      ],
      "stateMutability": "nonpayable",
      "type": "constructor"
    },
    {
      "anonymous": false,
      "inputs": [
        {
          "indexed": false,
          "internalType": "address",
          "name": "_projectAddress",
          "type": "address"
        },
        {
          "indexed": false,
          "internalType": "address",
          "name": "_investorAddress",
          "type": "address"
        },
        {
          "indexed": false,
          "internalType": "uint256",
          "name": "_amount",
          "type": "uint256"
        }
      ],
      "name": "amountInvestedInProject",
      "type": "event"
    },
    {
      "anonymous": false,
      "inputs": [
        {
          "indexed": false,
          "internalType": "address",
          "name": "_projectAddress",
          "type": "address"
        }
      ],
      "name": "fundingReleased",
      "type": "event"
    },
    {
      "anonymous": false,
      "inputs": [
        {
          "indexed": false,
          "internalType": "address",
          "name": "_projectAddress",
          "type": "address"
        },
        {
          "indexed": false,
          "internalType": "string",
          "name": "_projectName",
          "type": "string"
        },
        {
          "indexed": false,
          "internalType": "uint256",
          "name": "_requiredFunds",
          "type": "uint256"
        }
      ],
      "name": "projectRegistered",
      "type": "event"
    },
    {
      "inputs": [],
      "name": "Bank",
      "outputs": [
        {
          "internalType": "contract FundingBank",
          "name": "",
          "type": "address"
        }
      ],
      "stateMutability": "view",
      "type": "function",
      "constant": true
    },
    {
      "inputs": [
        {
          "internalType": "address",
          "name": "_projectAddress",
          "type": "address"
        },
        {
          "internalType": "string",
          "name": "_projectName",
          "type": "string"
        },
        {
          "internalType": "uint256",
          "name": "_requiredFunds",
          "type": "uint256"
        }
      ],
      "name": "registerProject",
      "outputs": [],
      "stateMutability": "nonpayable",
      "type": "function"
    },
    {
      "inputs": [
        {
          "internalType": "address",
          "name": "_projectAddress",
          "type": "address"
        },
        {
          "internalType": "uint256",
          "name": "_amount",
          "type": "uint256"
        }
      ],
      "name": "invest",
      "outputs": [],
      "stateMutability": "payable",
      "type": "function",
      "payable": true
    },
    {
      "inputs": [
        {
          "internalType": "address",
          "name": "_projectAddress",
          "type": "address"
        }
      ],
      "name": "getInvestors",
      "outputs": [
        {
          "internalType": "address[]",
          "name": "",
          "type": "address[]"
        }
      ],
      "stateMutability": "view",
      "type": "function",
      "constant": true
    },
    {
      "inputs": [
        {
          "internalType": "address",
          "name": "_projectAddress",
          "type": "address"
        }
      ],
      "name": "retrieveMoney",
      "outputs": [],
      "stateMutability": "nonpayable",
      "type": "function"
    },
    {
      "inputs": [
        {
          "internalType": "address",
          "name": "_projectAddress",
          "type": "address"
        }
      ],
      "name": "approveFunding",
      "outputs": [],
      "stateMutability": "nonpayable",
      "type": "function"
    },
    {
      "inputs": [
        {
          "internalType": "address",
          "name": "_projectAddress",
          "type": "address"
        }
      ],
      "name": "releaseFunding",
      "outputs": [],
      "stateMutability": "nonpayable",
      "type": "function"
    }
  ],
  "bytecode": "0x608060405234801561001057600080fd5b50604051610c9e380380610c9e8339818101604052602081101561003357600080fd5b505160008054600160401b600160e01b031916336801000000000000000002178155600180546001600160a01b0319166001600160a01b0390931692909217909155610c1990819061008590396000f3fe6080604052600436106100705760003560e01c80634e41108d1161004e5780634e41108d146101a25780638e4e3616146101d3578063b9b8c24614610206578063ec259c891461023257610070565b80630dc84349146100755780633fbe0f2b1461013c5780634546310c1461016f575b600080fd5b34801561008157600080fd5b5061013a6004803603606081101561009857600080fd5b6001600160a01b0382351691908101906040810160208201356401000000008111156100c357600080fd5b8201836020820111156100d557600080fd5b803590602001918460018302840111640100000000831117156100f757600080fd5b91908080601f01602080910402602001604051908101604052809392919081815260200183838082843760009201919091525092955050913592506102b5915050565b005b34801561014857600080fd5b5061013a6004803603602081101561015f57600080fd5b50356001600160a01b031661049e565b34801561017b57600080fd5b5061013a6004803603602081101561019257600080fd5b50356001600160a01b03166105d0565b3480156101ae57600080fd5b506101b76106b4565b604080516001600160a01b039092168252519081900360200190f35b3480156101df57600080fd5b5061013a600480360360208110156101f657600080fd5b50356001600160a01b03166106c3565b61013a6004803603604081101561021c57600080fd5b506001600160a01b0381351690602001356107f8565b34801561023e57600080fd5b506102656004803603602081101561025557600080fd5b50356001600160a01b03166108f5565b60408051602080825283518183015283519192839290830191858101910280838360005b838110156102a1578181015183820152602001610289565b505050509050019250505060405180910390f35b6000805467ffffffffffffffff8082166001011667ffffffffffffffff199091161790556102e161096e565b6040805160008152600160208083018281526060808501865293949092919085019080368337019050506040805160c0810182526000805467ffffffffffffffff908116835260208084018b81528486018b9052606085018490526080850189905260a085018790526001600160a01b038d16845260028252949092208351815467ffffffffffffffff1916921691909117815592518051929750939450869361039492600185019291909101906109ae565b506040820151600282015560608201516003820155608082015180516103c4916004840191602090910190610a2c565b5060a082015180516103e0916005840191602090910190610a8d565b509050507f37e2f1c49e33607523264689fbe7ba088c97f74d7c1d29bad61968f07ab7c31a86868660405180846001600160a01b0316815260200180602001838152602001828103825284818151815260200191508051906020019080838360005b8381101561045a578181015183820152602001610442565b50505050905090810190601f1680156104875780820380516001836020036101000a031916815260200191505b5094505050505060405180910390a1505050505050565b806001600160a01b03811633146104b457600080fd5b6001600160a01b03821660009081526002602081905260409091209081015460039091015410156105165760405162461bcd60e51b815260040180806020018281038252603f815260200180610ba5603f913960400191505060405180910390fd5b6001546001600160a01b03838116600081815260026020526040808220600301548151639478cc6560e01b815260048101949094526024840152519290931692639478cc659260448084019382900301818387803b15801561057757600080fd5b505af115801561058b573d6000803e3d6000fd5b5050604080516001600160a01b038616815290517f9caa571c7edaece6f48c4a435f144351a027c9aaaa91b5d555e8e4a201a1f1749350908190036020019150a15050565b6001600160a01b03811660009081526002602052604090205467ffffffffffffffff161561062f5760405162461bcd60e51b8152600401808060200182810382526029815260200180610b7c6029913960400191505060405180910390fd5b6001546001600160a01b0382811660009081526003602090815260408083203380855292528083205481516335bc88b160e01b8152600481019390935260248301525192909316926335bc88b1926044808301939282900301818387803b15801561069957600080fd5b505af11580156106ad573d6000803e3d6000fd5b5050505050565b6001546001600160a01b031681565b6001600160a01b0381166000908152600360209081526040808320338452909152902054610738576040805162461bcd60e51b815260206004820152601b60248201527f596f7520617265206e6f7420616c6c6f77656420746f20566f74650000000000604482015290519081900360640190fd5b6001600160a01b03811660008181526002602081815260408320600581018054600181018255908552828520928104909201805460ff601f9094166101000a938402191690921790915592909152810154600390910154106107f5576001546001600160a01b03828116600081815260026020526040808220600301548151639478cc6560e01b815260048101949094526024840152519290931692639478cc659260448084019382900301818387803b15801561069957600080fd5b50565b6001600160a01b038216600090815260036020908152604080832033845290915290205415610847576001600160a01b03821660009081526002602052604090206003018054820190556108a9565b6001600160a01b0382166000908152600260208181526040808420600380820180548801905583528185203380875290845291852086905592825260049092018054600181018255908452922090910180546001600160a01b03191690911790555b604080516001600160a01b038416815233602082015280820183905290517fbfc98a48dff0313feccab54bb77cba6be18ba1f031e88f190a015147a51562f59181900360600190a15050565b6001600160a01b03811660009081526002602090815260409182902060040180548351818402810184019094528084526060939283018282801561096257602002820191906000526020600020905b81546001600160a01b03168152600190910190602001808311610944575b50505050509050919050565b6040518060c00160405280600067ffffffffffffffff16815260200160608152602001600081526020016000815260200160608152602001606081525090565b828054600181600116156101000203166002900490600052602060002090601f016020900481019282601f106109ef57805160ff1916838001178555610a1c565b82800160010185558215610a1c579182015b82811115610a1c578251825591602001919060010190610a01565b50610a28929150610b2e565b5090565b828054828255906000526020600020908101928215610a81579160200282015b82811115610a8157825182546001600160a01b0319166001600160a01b03909116178255602090920191600190910190610a4c565b50610a28929150610b43565b82805482825590600052602060002090601f01602090048101928215610b225791602002820160005b83821115610af357835183826101000a81548160ff0219169083151502179055509260200192600101602081600001049283019260010302610ab6565b8015610b205782816101000a81549060ff0219169055600101602081600001049283019260010302610af3565b505b50610a28929150610b62565b5b80821115610a285760008155600101610b2f565b5b80821115610a285780546001600160a01b0319168155600101610b44565b5b80821115610a2857805460ff19168155600101610b6356fe556e61626c6520746f2072657472696576652c2070726f6a656374207374696c6c2072756e6e696e67546f74616c2046756e647320617265206c657373207468616e2072657175697265642c2046756e64696e672063616e6e6f742062652072656c65617365642ea2646970667358221220b1154f0f021e4e74c3fa0ee79842a6dd91953261f1df915dc54715b97d221b5564736f6c634300060c0033",
  "immutableReferences": {},
  "source": "// SPDX-License-Identifier: MIT\r\npragma solidity >=0.6.0;\r\nimport './fundingBank.sol';\r\n\r\ncontract CrowdFunding {\r\n    uint64 numberOfProjects;\r\n    address owner;\r\n    FundingBank public Bank;\r\n    mapping(address => projectInfo) projects;\r\n    mapping(address => mapping(address => uint256)) investedinProject;\r\n\r\n    \r\n    struct projectInfo {\r\n        uint64 id;\r\n        string projectName;\r\n        uint256 requiredFunds;\r\n        uint256 totalFunds;\r\n        address[] investors;\r\n        bool[] approvals;\r\n    }\r\n\r\n    // projectInfo info;\r\n\r\n    modifier ownerOnly {\r\n        require(msg.sender == owner, \"You don't have the required permissions\");\r\n        _;\r\n    }\r\n\r\n    modifier projectOwnerOnly (address _projectAddress) {\r\n        require(_projectAddress == msg.sender);\r\n        _;\r\n    }\r\n\r\n    event projectRegistered(address _projectAddress, string _projectName, uint256 _requiredFunds);\r\n    event amountInvestedInProject(address _projectAddress, address _investorAddress, uint256 _amount);\r\n    event fundingReleased(address _projectAddress);\r\n\r\n    constructor(address payable _fundingBankAddress) public {\r\n        owner = msg.sender;\r\n        Bank = FundingBank(_fundingBankAddress);\r\n    }\r\n\r\n    function registerProject (address _projectAddress, string memory _projectName, uint256 _requiredFunds) public {\r\n        numberOfProjects += 1;\r\n        projectInfo memory info;\r\n        address[] memory investor = new address[](0);\r\n        bool[] memory approval = new bool[](1);\r\n        info = projectInfo(numberOfProjects, _projectName, _requiredFunds, 0, investor, approval);\r\n        projects[_projectAddress] = info;\r\n        emit projectRegistered(_projectAddress, _projectName, _requiredFunds);\r\n    }\r\n\r\n    function invest (address _projectAddress, uint256 _amount) public payable {\r\n        if(investedinProject[_projectAddress][msg.sender] > 0) {\r\n            projects[_projectAddress].totalFunds += _amount;\r\n        }\r\n        else {\r\n            projects[_projectAddress].totalFunds += _amount;\r\n            investedinProject[_projectAddress][msg.sender] = _amount;\r\n            projects[_projectAddress].investors.push(msg.sender);\r\n        }\r\n        // payable(address(Bank)).transfer(msg.value);\r\n        emit amountInvestedInProject(_projectAddress, msg.sender, _amount);\r\n    }\r\n\r\n    function getInvestors(address _projectAddress) public view returns (address[] memory) {\r\n        return projects[_projectAddress].investors;\r\n    }\r\n\r\n    function retrieveMoney(address _projectAddress) public {\r\n        require(projects[_projectAddress].id==0, \"Unable to retrieve, project still running\");\r\n        Bank.returnMoney(msg.sender, investedinProject[_projectAddress][msg.sender]);\r\n    }\r\n\r\n    function approveFunding(address _projectAddress) public {\r\n        require(investedinProject[_projectAddress][msg.sender] > 0, \"You are not allowed to Vote\");\r\n        projects[_projectAddress].approvals.push(true); \r\n        if(projects[_projectAddress].totalFunds >= projects[_projectAddress].requiredFunds) {\r\n            // Condition is to release the funds when totalfunds reach requriedFunds and more than half of the investors approve.\r\n            Bank.releaseFunding(_projectAddress, projects[_projectAddress].totalFunds);\r\n        }\r\n    }\r\n\r\n    function releaseFunding(address _projectAddress) public projectOwnerOnly(_projectAddress) {\r\n        require(projects[_projectAddress].totalFunds >= projects[_projectAddress].requiredFunds, \"Total Funds are less than required, Funding cannot be released.\");\r\n            // Condition is to release the funds when totalfunds reach requriedFunds and more than half of the investors approve.\r\n        Bank.releaseFunding(_projectAddress, projects[_projectAddress].totalFunds);\r\n        emit fundingReleased(_projectAddress);\r\n    }\r\n\r\n    // function getProjectTotalFunding(address _projectAddress) public view returns (uint256) {\r\n    //     return projects[_projectAddress].totalFunds;\r\n    // }\r\n    //  && (projects[_projectAddress].approvals.length > (projects[_projectAddress].investors.length/2\r\n}",
  "sourcePath": "E:\\docs\\blockchain\\projects\\findfunds\\contracts\\crowdFunding.sol",
  "compiler": {
    "name": "solc",
    "version": "0.6.12+commit.27d51765.Emscripten.clang"
  },
  "schemaVersion": "3.4.4",
  "updatedAt": "2022-01-27T04:40:35.870Z",
  "networkType": "ethereum",
  "devdoc": {
    "kind": "dev",
    "methods": {},
    "version": 1
  },
  "userdoc": {
    "kind": "user",
    "methods": {},
    "version": 1
  }
}