{
  "contractName": "FundingBank",
  "abi": [
    {
      "inputs": [],
      "stateMutability": "nonpayable",
      "type": "constructor"
    },
    {
      "anonymous": false,
      "inputs": [
        {
          "indexed": false,
          "internalType": "address",
          "name": "_projectAddress",
          "type": "address"
        },
        {
          "indexed": false,
          "internalType": "uint256",
          "name": "_amount",
          "type": "uint256"
        }
      ],
      "name": "fundingReleased",
      "type": "event"
    },
    {
      "stateMutability": "payable",
      "type": "receive",
      "payable": true
    },
    {
      "inputs": [
        {
          "internalType": "address",
          "name": "_projectAddress",
          "type": "address"
        },
        {
          "internalType": "uint256",
          "name": "_amount",
          "type": "uint256"
        }
      ],
      "name": "releaseFunding",
      "outputs": [],
      "stateMutability": "nonpayable",
      "type": "function"
    },
    {
      "inputs": [],
      "name": "getTotalFunding",
      "outputs": [
        {
          "internalType": "uint256",
          "name": "",
          "type": "uint256"
        }
      ],
      "stateMutability": "view",
      "type": "function",
      "constant": true
    },
    {
      "inputs": [
        {
          "internalType": "address",
          "name": "_projectAddress",
          "type": "address"
        },
        {
          "internalType": "uint256",
          "name": "_amount",
          "type": "uint256"
        }
      ],
      "name": "returnMoney",
      "outputs": [],
      "stateMutability": "nonpayable",
      "type": "function"
    }
  ],
  "bytecode": "0x608060405234801561001057600080fd5b506101d3806100206000396000f3fe6080604052600436106100385760003560e01c806335bc88b1146100445780639478cc651461007f578063c2750f99146100b85761003f565b3661003f57005b600080fd5b34801561005057600080fd5b5061007d6004803603604081101561006757600080fd5b506001600160a01b0381351690602001356100df565b005b34801561008b57600080fd5b5061007d600480360360408110156100a257600080fd5b506001600160a01b03813516906020013561011a565b3480156100c457600080fd5b506100cd610199565b60408051918252519081900360200190f35b6040516001600160a01b0383169082156108fc029083906000818181858888f19350505050158015610115573d6000803e3d6000fd5b505050565b6040516001600160a01b0383169082156108fc029083906000818181858888f19350505050158015610150573d6000803e3d6000fd5b50604080516001600160a01b03841681526020810183905281517fb84c4dd30b9c4ea91333f5b86dc4b92636f98af07ebbde279a3effa07177c5f0929181900390910190a15050565b479056fea2646970667358221220ca6a8c2c5d346ece43a6d43f449aaa60ba88f720a645133fbbfb2e390c57856f64736f6c634300060c0033",
  "immutableReferences": {},
  "source": "// SPDX-License-Identifier: MIT\npragma solidity >=0.6.0;\n\ncontract FundingBank {\n    mapping(address => uint256) project_funding;\n    address owner;\n    uint256 totalFundingAmount;\n\n    constructor () public {\n        owner == msg.sender;\n    }\n\n    event fundingReleased(address _projectAddress, uint256 _amount);\n\n    receive() external payable {}\n\n    function releaseFunding(address _projectAddress, uint256 _amount) public {\n        payable(_projectAddress).transfer(_amount);\n        emit fundingReleased(_projectAddress, _amount);\n    }\n\n    function getTotalFunding() public view returns (uint256) {\n        return address(this).balance;\n    }\n\n    function returnMoney(address _projectAddress, uint256 _amount) external{\n        payable(_projectAddress).transfer(_amount);\n    }\n\n\n}",
  "sourcePath": "/home/sting/blocksec-env/findFunds2/contracts/FundingBank.sol",
  "compiler": {
    "name": "solc",
    "version": "0.6.12+commit.27d51765.Emscripten.clang"
  },
  "schemaVersion": "3.4.4",
  "updatedAt": "2022-02-12T20:17:57.578Z",
  "networkType": "ethereum",
  "devdoc": {
    "kind": "dev",
    "methods": {},
    "version": 1
  },
  "userdoc": {
    "kind": "user",
    "methods": {},
    "version": 1
  }
}